{
  "contractName": "Authenticity",
  "abi": [
    {
      "constant": false,
      "inputs": [
        {
          "name": "fileSize",
          "type": "uint256"
        },
        {
          "name": "fileHash",
          "type": "string"
        }
      ],
      "name": "certifyFile",
      "outputs": [],
      "payable": true,
      "stateMutability": "payable",
      "type": "function"
    },
    {
      "constant": true,
      "inputs": [],
      "name": "getHistory",
      "outputs": [
        {
          "components": [
            {
              "name": "fileSize",
              "type": "uint256"
            },
            {
              "name": "fileHash",
              "type": "string"
            },
            {
              "name": "timestamp",
              "type": "uint256"
            }
          ],
          "name": "",
          "type": "tuple[]"
        }
      ],
      "payable": false,
      "stateMutability": "view",
      "type": "function"
    }
  ],
  "bytecode": "0x608060405234801561001057600080fd5b50610757806100206000396000f3fe6080604052600436106100295760003560e01c806373e1bb321461002e578063aa15efc81461004a575b600080fd5b61004860048036036100439190810190610467565b610075565b005b34801561005657600080fd5b5061005f61013d565b60405161006c91906105dc565b60405180910390f35b61007d610317565b60405180606001604052808481526020018381526020014281525090506000803373ffffffffffffffffffffffffffffffffffffffff1673ffffffffffffffffffffffffffffffffffffffff168152602001908152602001600020819080600181540180825580915050906001820390600052602060002090600302016000909192909190915060008201518160000155602082015181600101908051906020019061012a929190610338565b5060408201518160020155505050505050565b606060008060003373ffffffffffffffffffffffffffffffffffffffff1673ffffffffffffffffffffffffffffffffffffffff1681526020019081526020016000208054905090506060816040519080825280602002602001820160405280156101c157816020015b6101ae6103b8565b8152602001906001900390816101a65790505b50905060008090505b8281101561030e576000803373ffffffffffffffffffffffffffffffffffffffff1673ffffffffffffffffffffffffffffffffffffffff168152602001908152602001600020818154811061021b57fe5b906000526020600020906003020160405180606001604052908160008201548152602001600182018054600181600116156101000203166002900480601f0160208091040260200160405190810160405280929190818152602001828054600181600116156101000203166002900480156102d75780601f106102ac576101008083540402835291602001916102d7565b820191906000526020600020905b8154815290600101906020018083116102ba57829003601f168201915b505050505081526020016002820154815250508282815181106102f657fe5b602002602001018190525080806001019150506101ca565b50809250505090565b60405180606001604052806000815260200160608152602001600081525090565b828054600181600116156101000203166002900490600052602060002090601f016020900481019282601f1061037957805160ff19168380011785556103a7565b828001600101855582156103a7579182015b828111156103a657825182559160200191906001019061038b565b5b5090506103b491906103d9565b5090565b60405180606001604052806000815260200160608152602001600081525090565b6103fb91905b808211156103f75760008160009055506001016103df565b5090565b90565b600082601f83011261040f57600080fd5b813561042261041d8261062b565b6105fe565b9150808252602083016020830185838301111561043e57600080fd5b6104498382846106b3565b50505092915050565b60008135905061046181610706565b92915050565b6000806040838503121561047a57600080fd5b600061048885828601610452565b925050602083013567ffffffffffffffff8111156104a557600080fd5b6104b1858286016103fe565b9150509250929050565b60006104c7838361057d565b905092915050565b60006104da82610664565b6104e48185610687565b9350836020820285016104f685610657565b8060005b85811015610532578484038952815161051385826104bb565b945061051e8361067a565b925060208a019950506001810190506104fa565b50829750879550505050505092915050565b600061054f8261066f565b6105598185610698565b93506105698185602086016106c2565b610572816106f5565b840191505092915050565b600060608301600083015161059560008601826105cd565b50602083015184820360208601526105ad8282610544565b91505060408301516105c260408601826105cd565b508091505092915050565b6105d6816106a9565b82525050565b600060208201905081810360008301526105f681846104cf565b905092915050565b6000604051905081810181811067ffffffffffffffff8211171561062157600080fd5b8060405250919050565b600067ffffffffffffffff82111561064257600080fd5b601f19601f8301169050602081019050919050565b6000602082019050919050565b600081519050919050565b600081519050919050565b6000602082019050919050565b600082825260208201905092915050565b600082825260208201905092915050565b6000819050919050565b82818337600083830152505050565b60005b838110156106e05780820151818401526020810190506106c5565b838111156106ef576000848401525b50505050565b6000601f19601f8301169050919050565b61070f816106a9565b811461071a57600080fd5b5056fea265627a7a72305820aece2a1beb061daf0f9cf89898e67d08f63344758421f6ab5b8ef22e45b8a8056c6578706572696d656e74616cf50037",
  "source": "pragma solidity ^0.5.0;\npragma experimental ABIEncoderV2;\n\ncontract Authenticity {\n\n  struct FileCertificate {\n    uint fileSize;\n    string fileHash;\n    uint timestamp;\n  }\n\n  mapping (address => FileCertificate[]) usersMap;\n\n  function certifyFile(uint fileSize, string memory fileHash) public payable {\n    FileCertificate memory newCertificate = FileCertificate(fileSize, fileHash, block.timestamp);\n    usersMap[msg.sender].push(newCertificate);\n  }\n\n  function getHistory() public view returns(FileCertificate[] memory) {\n    uint historyLen = usersMap[msg.sender].length;\n    FileCertificate[] memory retValue = new FileCertificate[](historyLen);\n    for (uint i = 0; i < historyLen; i++) {\n        retValue[i] = usersMap[msg.sender][i];\n    }\n    return retValue;\n  }\n}\n",
  "sourcePath": "/Users/Fede/Documents/dapps/file-timestamper/contracts/Authenticity.sol",
  "compiler": {
    "name": "solc",
    "version": "0.5.8+commit.23d335f2.Emscripten.clang"
  },
  "schemaVersion": "3.0.14",
  "updatedAt": "2019-09-29T15:14:01.174Z",
  "devdoc": {
    "methods": {}
  },
  "userdoc": {
    "methods": {}
  }
}