{
  "contractName": "Authenticity",
  "abi": [
    {
      "constant": false,
      "inputs": [
        {
          "name": "fileSize",
          "type": "uint256"
        },
        {
          "name": "fileHash",
          "type": "string"
        }
      ],
      "name": "certifyFile",
      "outputs": [],
      "payable": true,
      "stateMutability": "payable",
      "type": "function"
    },
    {
      "constant": true,
      "inputs": [],
      "name": "getHistory",
      "outputs": [
        {
          "components": [
            {
              "name": "fileSize",
              "type": "uint256"
            },
            {
              "name": "fileHash",
              "type": "string"
            }
          ],
          "name": "",
          "type": "tuple[]"
        }
      ],
      "payable": false,
      "stateMutability": "view",
      "type": "function"
    }
  ],
  "bytecode": "0x608060405234801561001057600080fd5b5061071c806100206000396000f3fe6080604052600436106100295760003560e01c806373e1bb321461002e578063aa15efc81461004a575b600080fd5b6100486004803603610043919081019061043f565b610075565b005b34801561005657600080fd5b5061005f61012d565b60405161006c91906105a1565b60405180910390f35b61007d6102fd565b60405180604001604052808481526020018381525090506000803373ffffffffffffffffffffffffffffffffffffffff1673ffffffffffffffffffffffffffffffffffffffff1681526020019081526020016000208190806001815401808255809150509060018203906000526020600020906002020160009091929091909150600082015181600001556020820151816001019080519060200190610124929190610317565b50505050505050565b606060008060003373ffffffffffffffffffffffffffffffffffffffff1673ffffffffffffffffffffffffffffffffffffffff1681526020019081526020016000208054905090506060816040519080825280602002602001820160405280156101b157816020015b61019e610397565b8152602001906001900390816101965790505b50905060008090505b828110156102f4576000803373ffffffffffffffffffffffffffffffffffffffff1673ffffffffffffffffffffffffffffffffffffffff168152602001908152602001600020818154811061020b57fe5b906000526020600020906002020160405180604001604052908160008201548152602001600182018054600181600116156101000203166002900480601f0160208091040260200160405190810160405280929190818152602001828054600181600116156101000203166002900480156102c75780601f1061029c576101008083540402835291602001916102c7565b820191906000526020600020905b8154815290600101906020018083116102aa57829003601f168201915b5050505050815250508282815181106102dc57fe5b602002602001018190525080806001019150506101ba565b50809250505090565b604051806040016040528060008152602001606081525090565b828054600181600116156101000203166002900490600052602060002090601f016020900481019282601f1061035857805160ff1916838001178555610386565b82800160010185558215610386579182015b8281111561038557825182559160200191906001019061036a565b5b50905061039391906103b1565b5090565b604051806040016040528060008152602001606081525090565b6103d391905b808211156103cf5760008160009055506001016103b7565b5090565b90565b600082601f8301126103e757600080fd5b81356103fa6103f5826105f0565b6105c3565b9150808252602083016020830185838301111561041657600080fd5b610421838284610678565b50505092915050565b600081359050610439816106cb565b92915050565b6000806040838503121561045257600080fd5b60006104608582860161042a565b925050602083013567ffffffffffffffff81111561047d57600080fd5b610489858286016103d6565b9150509250929050565b600061049f8383610555565b905092915050565b60006104b282610629565b6104bc818561064c565b9350836020820285016104ce8561061c565b8060005b8581101561050a57848403895281516104eb8582610493565b94506104f68361063f565b925060208a019950506001810190506104d2565b50829750879550505050505092915050565b600061052782610634565b610531818561065d565b9350610541818560208601610687565b61054a816106ba565b840191505092915050565b600060408301600083015161056d6000860182610592565b5060208301518482036020860152610585828261051c565b9150508091505092915050565b61059b8161066e565b82525050565b600060208201905081810360008301526105bb81846104a7565b905092915050565b6000604051905081810181811067ffffffffffffffff821117156105e657600080fd5b8060405250919050565b600067ffffffffffffffff82111561060757600080fd5b601f19601f8301169050602081019050919050565b6000602082019050919050565b600081519050919050565b600081519050919050565b6000602082019050919050565b600082825260208201905092915050565b600082825260208201905092915050565b6000819050919050565b82818337600083830152505050565b60005b838110156106a557808201518184015260208101905061068a565b838111156106b4576000848401525b50505050565b6000601f19601f8301169050919050565b6106d48161066e565b81146106df57600080fd5b5056fea265627a7a7230582064b6c0ea6d8b198ba7a409afd0c2be2f9346def6a17a783a1bd6932f3a105ac66c6578706572696d656e74616cf50037",
  "source": "pragma solidity ^0.5.0;\npragma experimental ABIEncoderV2;\n\ncontract Authenticity {\n\n  struct FileCertificate {\n    uint fileSize;\n    string fileHash;\n  }\n\n  mapping (address => FileCertificate[]) usersMap;\n\n  function certifyFile(uint fileSize, string memory fileHash) public payable {\n    FileCertificate memory newCertificate = FileCertificate(fileSize, fileHash);\n    usersMap[msg.sender].push(newCertificate);\n  }\n\n  function getHistory() public view returns(FileCertificate[] memory) {\n    uint historyLen = usersMap[msg.sender].length;\n    FileCertificate[] memory retValue = new FileCertificate[](historyLen);\n    for (uint i = 0; i < historyLen; i++) {\n        retValue[i] = usersMap[msg.sender][i];\n    }\n    return retValue;\n  }\n}\n",
  "sourcePath": "/Users/Fede/Documents/dapps/file-timestamper/contracts/Authenticity.sol",
  "compiler": {
    "name": "solc",
    "version": "0.5.8+commit.23d335f2.Emscripten.clang"
  },
  "schemaVersion": "3.0.14",
  "updatedAt": "2019-09-22T17:04:04.652Z",
  "devdoc": {
    "methods": {}
  },
  "userdoc": {
    "methods": {}
  }
}