{
  "contractName": "Authenticity",
  "abi": [
    {
      "anonymous": false,
      "inputs": [
        {
          "indexed": false,
          "internalType": "address",
          "name": "author",
          "type": "address"
        },
        {
          "indexed": false,
          "internalType": "string",
          "name": "fileHash",
          "type": "string"
        },
        {
          "indexed": false,
          "internalType": "uint256",
          "name": "timestamp",
          "type": "uint256"
        },
        {
          "indexed": false,
          "internalType": "uint256",
          "name": "fileSize",
          "type": "uint256"
        },
        {
          "indexed": false,
          "internalType": "string",
          "name": "fileExtension",
          "type": "string"
        }
      ],
      "name": "FileCertified",
      "type": "event"
    },
    {
      "constant": false,
      "inputs": [
        {
          "internalType": "uint256",
          "name": "fileSize",
          "type": "uint256"
        },
        {
          "internalType": "string",
          "name": "fileHash",
          "type": "string"
        },
        {
          "internalType": "string",
          "name": "fileExtension",
          "type": "string"
        }
      ],
      "name": "certifyFile",
      "outputs": [],
      "payable": true,
      "stateMutability": "payable",
      "type": "function"
    },
    {
      "constant": true,
      "inputs": [
        {
          "internalType": "string",
          "name": "fileHash",
          "type": "string"
        }
      ],
      "name": "verifyFile",
      "outputs": [
        {
          "internalType": "address",
          "name": "",
          "type": "address"
        },
        {
          "internalType": "string",
          "name": "",
          "type": "string"
        },
        {
          "internalType": "uint256",
          "name": "",
          "type": "uint256"
        },
        {
          "internalType": "uint256",
          "name": "",
          "type": "uint256"
        },
        {
          "internalType": "string",
          "name": "",
          "type": "string"
        }
      ],
      "payable": false,
      "stateMutability": "view",
      "type": "function"
    }
  ],
  "bytecode": "0x608060405234801561001057600080fd5b50610ac6806100206000396000f3fe6080604052600436106100295760003560e01c806390d991e61461002e578063b02710231461018a575b600080fd5b6101886004803603606081101561004457600080fd5b81019080803590602001909291908035906020019064010000000081111561006b57600080fd5b82018360208201111561007d57600080fd5b8035906020019184600183028401116401000000008311171561009f57600080fd5b91908080601f016020809104026020016040519081016040528093929190818152602001838380828437600081840152601f19601f8201169050808301925050505050505091929192908035906020019064010000000081111561010257600080fd5b82018360208201111561011457600080fd5b8035906020019184600183028401116401000000008311171561013657600080fd5b91908080601f016020809104026020016040519081016040528093929190818152602001838380828437600081840152601f19601f820116905080830192505050505050509192919290505050610378565b005b34801561019657600080fd5b50610250600480360360208110156101ad57600080fd5b81019080803590602001906401000000008111156101ca57600080fd5b8201836020820111156101dc57600080fd5b803590602001918460018302840111640100000000831117156101fe57600080fd5b91908080601f016020809104026020016040519081016040528093929190818152602001838380828437600081840152601f19601f820116905080830192505050505050509192919290505050610614565b604051808673ffffffffffffffffffffffffffffffffffffffff1673ffffffffffffffffffffffffffffffffffffffff1681526020018060200185815260200184815260200180602001838103835287818151815260200191508051906020019080838360005b838110156102d25780820151818401526020810190506102b7565b50505050905090810190601f1680156102ff5780820380516001836020036101000a031916815260200191505b50838103825284818151815260200191508051906020019080838360005b8381101561033857808201518184015260208101905061031d565b50505050905090810190601f1680156103655780820380516001836020036101000a031916815260200191505b5097505050505050505060405180910390f35b6103806109a7565b6040518060a001604052803373ffffffffffffffffffffffffffffffffffffffff168152602001848152602001428152602001858152602001838152509050806000846040518082805190602001908083835b602083106103f657805182526020820191506020810190506020830392506103d3565b6001836020036101000a038019825116818451168082178552505050505050905001915050908152602001604051809103902060008201518160000160006101000a81548173ffffffffffffffffffffffffffffffffffffffff021916908373ffffffffffffffffffffffffffffffffffffffff160217905550602082015181600101908051906020019061048c9291906109ec565b50604082015181600201556060820151816003015560808201518160040190805190602001906104bd9291906109ec565b509050507f7233f1f5a296ceee040647096ea8b83745c99e3a2e329004608ae07ac3b9ea2c3384428786604051808673ffffffffffffffffffffffffffffffffffffffff1673ffffffffffffffffffffffffffffffffffffffff1681526020018060200185815260200184815260200180602001838103835287818151815260200191508051906020019080838360005b8381101561056957808201518184015260208101905061054e565b50505050905090810190601f1680156105965780820380516001836020036101000a031916815260200191505b50838103825284818151815260200191508051906020019080838360005b838110156105cf5780820151818401526020810190506105b4565b50505050905090810190601f1680156105fc5780820380516001836020036101000a031916815260200191505b5097505050505050505060405180910390a150505050565b6000606060008060606000866040518082805190602001908083835b602083106106535780518252602082019150602081019050602083039250610630565b6001836020036101000a038019825116818451168082178552505050505050905001915050908152602001604051809103902060000160009054906101000a900473ffffffffffffffffffffffffffffffffffffffff166000876040518082805190602001908083835b602083106106e057805182526020820191506020810190506020830392506106bd565b6001836020036101000a03801982511681845116808217855250505050505090500191505090815260200160405180910390206001016000886040518082805190602001908083835b6020831061074c5780518252602082019150602081019050602083039250610729565b6001836020036101000a0380198251168184511680821785525050505050509050019150509081526020016040518091039020600201546000896040518082805190602001908083835b602083106107b95780518252602082019150602081019050602083039250610796565b6001836020036101000a03801982511681845116808217855250505050505090500191505090815260200160405180910390206003015460008a6040518082805190602001908083835b602083106108265780518252602082019150602081019050602083039250610803565b6001836020036101000a0380198251168184511680821785525050505050509050019150509081526020016040518091039020600401838054600181600116156101000203166002900480601f0160208091040260200160405190810160405280929190818152602001828054600181600116156101000203166002900480156108f15780601f106108c6576101008083540402835291602001916108f1565b820191906000526020600020905b8154815290600101906020018083116108d457829003601f168201915b50505050509350808054600181600116156101000203166002900480601f01602080910402602001604051908101604052809291908181526020018280546001816001161561010002031660029004801561098d5780601f106109625761010080835404028352916020019161098d565b820191906000526020600020905b81548152906001019060200180831161097057829003601f168201915b505050505090509450945094509450945091939590929450565b6040518060a00160405280600073ffffffffffffffffffffffffffffffffffffffff168152602001606081526020016000815260200160008152602001606081525090565b828054600181600116156101000203166002900490600052602060002090601f016020900481019282601f10610a2d57805160ff1916838001178555610a5b565b82800160010185558215610a5b579182015b82811115610a5a578251825591602001919060010190610a3f565b5b509050610a689190610a6c565b5090565b610a8e91905b80821115610a8a576000816000905550600101610a72565b5090565b9056fea265627a7a7231582085a0b529688e1aeeba4e3b7efad460e01a6205b272dfe9cea49cceb1e276acab64736f6c634300050c0032",
  "source": "pragma solidity ^0.5.12;\n\ncontract Authenticity {\n\n  event FileCertified(address author, string fileHash, uint timestamp, uint fileSize, string fileExtension);\n\n  struct FileCertificate {\n    address author;\n    string fileHash;\n    uint timestamp;\n    uint fileSize;\n    string fileExtension;\n  }\n\n  mapping (string => FileCertificate) fileCertificatesMap;\n\n  function certifyFile(uint fileSize, string memory fileHash, string memory fileExtension) public payable {\n    FileCertificate memory newFileCertificate = FileCertificate(msg.sender, fileHash, block.timestamp, fileSize, fileExtension);\n    fileCertificatesMap[fileHash] = newFileCertificate;\n    emit FileCertified(msg.sender, fileHash, block.timestamp, fileSize, fileExtension);\n  }\n\n  function verifyFile(string memory fileHash) public view returns (address, string memory, uint, uint, string memory) {\n    return (fileCertificatesMap[fileHash].author, fileCertificatesMap[fileHash].fileHash, fileCertificatesMap[fileHash].timestamp, fileCertificatesMap[fileHash].fileSize, fileCertificatesMap[fileHash].fileExtension);\n  }\n\n\n}\n",
  "sourcePath": "/home/ubuntu/file-validation-certification-dapp/contracts/Authenticity.sol",
  "compiler": {
    "name": "solc",
    "version": "0.5.12+commit.7709ece9.Emscripten.clang"
  },
  "schemaVersion": "3.0.19",
  "updatedAt": "2019-11-24T17:50:50.893Z",
  "devdoc": {
    "methods": {}
  },
  "userdoc": {
    "methods": {}
  }
}